:020000040800F2
:1000000048DD002029030008615F00081D55000835
:10001000155F0008D5130008F5BA000800000000BD
:10002000000000000000000000000000690200085D
:10003000A31E000800000000C50200087992000815
:100040004303000843030008430300084303000878
:100050004303000843030008A51E000843030008EB
:1000600043030008AF1E0008B91E00084303000840
:100070000D1500084303000843030008430300086C
:100080004303000843030008430300084303000838
:10009000D91300084303000843030008C31E0008E7
:1000A00043030008C5930008430300084303000806
:1000B0004303000843030008430300084303000808
:1000C00043030008430300084303000843030008F8
:1000D00043030008430300084303000843030008E8
:1000E00043030008430300084303000843030008D8
:1000F00043030008430300084303000843030008C8
:1001000043030008430300084303000843030008B7
:1001100043030008430300084303000843030008A7
:1001200043030008430300081D150008B51D00081F
:100130004303000843030008430300084303000887
:10014000E91300084303000843030008655F000843
:100150004303000843030008430300084303000867
:100160004303000843030008430300084303000857
:100170004303000843030008430300080000000095
:10018000430300084303000800F002F800F05CF8A5
:100190000AA090E8000C82448344AAF10107DA45E2
:1001A00001D100F051F8AFF2090EBAE80F0013F0D8
:1001B000010F18BFFB1A43F001031847280801007C
:1001C000480801000A444FF0000C10F8013B13F0FE
:1001D000070408BF10F8014B1D1108BF10F8015BA0
:1001E000641E05D010F8016B641E01F8016BF9D193
:1001F00013F0080F1EBF10F8014BAD1C0C1B09D1EA
:100200006D1E58BF01F801CBFAD505E014F8016B5B
:1002100001F8016B6D1EF9D59142D6D370470000ED
:100220000023002400250026103A28BF78C1FBD8FF
:10023000520728BF30C148BF0B6070471FB50FF091
:100240006DFD1FBD10B510BD00F04CFA1146FFF753
:10025000F5FF0DF05DF800F06AFA03B4FFF7F2FF66
:1002600003BC00F0CFFA00002C4B19680868B0E816
:10027000F04F80F30988BFF36F8F4FF0000080F3D9
:10028000118870470000000008480068006880F38B
:1002900008884FF0000080F3148862B661B6BFF39F
:1002A0004F8FBFF36F8F00DF00BF00BF08ED00E08E
:1002B000DFF80C00016841F470010160704700BF75
:1002C00088ED00E0EFF30980BFF36F8F134B1A68DE
:1002D0001EF0100F08BF20ED108A20E9F04F1060CB
:1002E00009B44FF0500080F31188BFF34F8FBFF374
:1002F0006F8F0DF0CDFF4FF0000080F3118809BC27
:1003000019680868B0E8F04F1EF0100F08BFB0EC95
:10031000108A80F30988BFF36F8F70478C0000202C
:10032000EFF30580704700000948804709480047FF
:10033000FEE7FEE7FEE7FEE7FEE7FEE7FEE7FEE795
:10034000FEE7FEE704480549054A064B70470000F2
:10035000619300088901000848D7002048DD00208B
:1003600048D9002048D900209FED1A1AF5EE000A5E
:1003700040EE010ABDEEE00AF5EEC00A10EE100AEA
:10038000F1EE10FA38BF401E00EE100A1349F7EEE6
:10039000001AB8EEC00A30EEC00ADFED0F0A20EEF8
:1003A000200AFCEEC00A10EE900AC0F3080000EE2E
:1003B000900A01EB8000F8EE600A90ED011A70EEF1
:1003C000600A90ED000A71EEE01A21EE800A00EE5C
:1003D000810A704783F9223E000000449001010821
:1003E000DFED190AB5EEC00A60EE200ABDEEE01A94
:1003F00011EE100AF1EE10FA38BF401E00EE100A9E
:100400001349F7EE001AB8EEC00A30EEC00ADFED6D
:100410000F0A60EE200ABCEEE00A10EE100AC0F3EC
:10042000080000EE100A01EB8000B8EE400A90EDE3
:10043000011A70EEC00A90ED000A71EEE01A21EE8A
:10044000800A00EE810A704783F9223E00000044D2
:100450009001010853EA020C00F069802DE9F04B8D
:100460004FF00006002B1FBFB3FA83F503FA05F423
:1004700024FA05F65E4012BF1643B2FA82F502FA7C
:1004800005F4C5F120051EBF22FA05FC44EA0C0460
:10049000203556EA044C4FEA144418BF641C4FF050
:1004A00000084FF00009904271EB030C39D300298A
:1004B00019BFB1FA81F701FA07F6B0FA80F700FA2E
:1004C00007F6C7F120071EBF20FA07FC46EA0C0614
:1004D0002037B6FBF4FCA7EB0507103F07F01F0B16
:1004E000CBF120060CFA0BFB2CFA06F644BFB34600
:1004F0000026202FA4BF5E464FF0000B5BEA060CDF
:1005000008BF4FF0010B19EB0B09ABFB027C48EB6A
:100510000608C01B06FB02CC0BFB03CC71EB0C01E5
:10052000C1E70B46024641464846BDE8F08B13B58D
:100530004FF000004FF00001AFF30080BDE81C4019
:10054000704710B5431C02E010F8011B71B1810720
:10055000FAD14FF0013202C88C1A8C4314EAC2114E
:10056000F9D0C01A0A0603D0C01E10BDC01A10BDB3
:100570000A0401D0801E10BD0902FCD0401E10BD2F
:1005800010B5203AC0F00B80B1E81850203AA0E82E
:100590001850B1E81850A0E81850BFF4F5AF5FEA62
:1005A000027C24BFB1E81850A0E8185044BF18C915
:1005B00018C0BDE810405FEA827C24BF51F8043BBC
:1005C00040F8043B08BF7047D20728BF31F8023B10
:1005D00048BF11F8012B28BF20F8023B48BF00F8A4
:1005E000012B704702F0FF0343EA032242EA024272
:1005F00000F037B84FF0000200B513469446964617
:10060000203922BFA0E80C50A0E80C50B1F1200125
:10061000BFF4F7AF090728BFA0E80C5048BF0CC0D3
:100620005DF804EB890028BF40F8042B08BF704731
:1006300048BF20F8022B11F0804F18BF00F8012BA3
:10064000704770477047704710B500F02BF800688E
:1006500010BD10B5044600F025F8046010BD4FF041
:1006600000020429C0F0128010F0030C3FF4C4AF64
:10067000CCF1040CBCF1020F18BF00F8012BA8BF8D
:1006800020F8022BA1EB0C01FFF7B6BF5FEAC17C9B
:1006900024BF00F8012B00F8012B48BF00F8012B04
:1006A0007047000000487047E8D600201FB584B0AE
:1006B00000200A9C06AB04AA02A90094AFF30080B4
:1006C00018B1DDE9020108B010BD0348204000F078
:1006D00037F800200146F6E70000207C004870470C
:1006E000E8D600207546FFF7F9FFAE4605006946DB
:1006F000534620F00700854618B020B5FFF722FECC
:10070000BDE820404FF000064FF000074FF0000812
:100710004FF0000B21F00701AC46ACE8C009ACE893
:10072000C009ACE8C009ACE8C0098D46704710B5F7
:100730000446AFF300802046BDE81040FFF78DBDB2
:1007400010B500F009F8BDE81040AFF300800028B4
:1007500001D000F057B8704710B5022803D041010E
:1007600003D50DA112E0002010BD010101D50FA19C
:100770000CE0C10001D511A108E0810001D512A152
:1007800004E0400001D513A100E0002115A000F015
:100790003FF8012010BD0000496E76616C6964204D
:1007A0004F7065726174696F6E000000446976690C
:1007B0006465204279205A65726F00004F76657239
:1007C000666C6F7700000000556E646572666C6F32
:1007D00077000000496E6578616374205265737517
:1007E0006C7400005349474650453A204172697481
:1007F000686D6574696320657863657074696F6E90
:100800003A20000001491820ABBEFEE72600020096
:1008100070B505460C460A2000E06D1C00F011F88A
:1008200035B128780028F8D102E0641C00F009F8FE
:1008300014B120780028F8D1BDE870400A20AFF349
:10084000008008B569468DF800000320ABBE08BDE6
:10085000704710B52DED028BB0EE408AB0EE480A1D
:100860000BF07AF9BDEC028B10BD10B52DED028BAB
:10087000B0EE408AF0EE608AF0EE680AB0EE480A08
:100880000BF000FABDEC028B10BD10B52DED028B04
:10089000B0EE408AB0EE480AFFF766FDBDEC028B71
:1008A00010BDF0EE400AF5EEC00AF1EE10FA02DDDE
:1008B000B0EE600A7047B1EE600AFBE718B19FED39
:1008C000020A80ED000A70470000000018B1B3EE84
:1008D000060A80ED000A704770B52DED0C8B84B0D0
:1008E00006460C4615469FED990AF0EE408A9FEDAC
:1008F000970AB0EE409A9FED950AF0EE40BA9FED50
:10090000930AF0EE409A9FED910AB0EE40AA0EB124
:1009100004B11DB904B0BDEC0C8B70BD8C48FFF761
:10092000CDFF8C48FFF7D2FF8A48D0ED000A9FED3B
:100930008A1A60EE810AB0EE600A00F02DF9F0EE3E
:10094000408A28EEA80AF0EE408A8248D0ED000ADC
:10095000B0EE001A60EE810A9FED7F1A60EE810A08
:10096000B0EE600A00F018F9B0EE409A29EE090ADC
:10097000B0EE409ADFED790AB7EE000A00EEA80A61
:10098000DFED770A00EEC90ADFED760A20EE200AD5
:10099000754880ED000A6E4890ED000ADFED730A9D
:1009A00080EE201AB7EE000A31EE000A20EE000AAF
:1009B0006D48D0ED000A80EE801A6D4880ED001A77
:1009C00094ED000AB5EEC00AF1EE10FA0DD194EDE7
:1009D000010AB5EEC00AF1EE10FA06D194ED020A52
:1009E000B5EEC00AF1EE10FA46D09FED580AB0EE0F
:1009F000408A0020019002900390D4ED000A60EE3E
:100A0000A00A94ED011AD4ED011A41EE210A94EDE9
:100A1000021AD4ED021A41EE210AB0EE600A00F08B
:100A2000A9F8B0EE408A94ED000A20EE080A8DED98
:100A3000010A94ED010A20EE080A8DED020A94EDF8
:100A4000020A20EE080A8DED030ADDED010AF1EE3F
:100A5000600AB0EE600AFFF7FCFEF0EE409A9DEDF2
:100A6000031AF0EE410A9DED021AB0EE410AFFF7BB
:100A7000FCFEB0EE40AA07E09FED340AF0EE409A8B
:100A80009FED320AB0EE40AA95ED000AB5EEC00A1D
:100A9000F1EE10FA0DD195ED010AB5EEC00AF1EEB6
:100AA00010FA06D195ED020AB5EEC00AF1EE10FA81
:100AB0003CD0B0EE690A00F06FF8B0EE408AB0EEBC
:100AC000690AFFF7E2FEB0EE40DAB0EE4A0A00F043
:100AD00063F8F0EE40AAB0EE4A0AFFF7D6FEB0EE99
:100AE00040BA28EE2A0AD5ED010A20EE200AD5EDFB
:100AF000000A0DEE200A68EE0B0A95ED021A00EED0
:100B0000810AB0EE40CA95ED010A20EE0B0AD5ED40
:100B1000020A0AEEE00AF0EE40CAF0EE6C0AB0EE0D
:100B20004C0AFFF7A2FEF0EE40BA03E09FED070A81
:100B3000F0EE40BAB0EE4A1AF0EE690AB0EE6B0A77
:100B400030460BF01BFD00BFE4E600000000000093
:100B5000440300204803002035FA8E3CC1BFAD3B62
:100B60009DF8C5362F7C1C414C030020506CC24AB6
:100B70005003002010B52DED028BB0EE408AB0EE90
:100B8000480A0BF06FFAB7EE001AC1EE000AB0EE99
:100B9000600ABDEC028B10BD10B52DED028BB0EEDE
:100BA000408AB0EE480AFFF71BFCBDEC028B10BD7B
:100BB0002DE9F0412DED028B9AB00546B0EE408A4A
:100BC0000E461746984600201790189019901490DA
:100BD000159016904DB146B13FB1B8F1000F04D059
:100BE000B5EEC08AF1EE10FA05D100201AB0BDECC6
:100BF000028BBDE8F08196ED000A8DED170A96EDA7
:100C0000010A8DED180A96ED020A8DED190A97ED8D
:100C1000000A8DED140A97ED010A8DED150A97ED86
:100C2000020A8DED160A17AA14A928460BF0F8FA45
:100C3000402104A8FFF7DEFC002000900190029004
:100C40000390002417A904A80DF03EF800BF30E07F
:100C500004A800EB041090ED000AD5ED000A20EE88
:100C6000200A04A800EB0410D0ED010A95ED011A4A
:100C700000EE810A04A800EB0410D0ED020A95ED05
:100C8000021A00EE810A04A800EB0410D0ED030A5A
:100C900095ED031A00EE810A20EE080AF0EE000A34
:100CA00080EE201A684600EB840080ED001A601C7C
:100CB000C4B2042CCCDB002410E005EB840090EDE2
:100CC000000A684600EB8400D0ED000A30EE200AEE
:100CD00005EB840080ED000A601CC4B2042CECDB40
:100CE00028460CF00FFF012080E7000010B501221C
:100CF0001021024802F066F910BD00000000024019
:100D000010B500221021024802F05CF910BD00006D
:100D1000000002407047000010B501221146024851
:100D200002F050F910BD00000004024010B500228E
:100D30000121024802F046F910BD00000004024003
:100D400010B543781B021BB20478234300EE103A1F
:100D5000B8EEC01A1C4BD3ED001A21EE211A81ED1A
:100D6000001AC3781B021BB28478234300EE103AAA
:100D7000B8EEC01A144BD3ED001A21EE211A81ED02
:100D8000011A43791B021BB20479234300EE103A87
:100D9000B8EEC01A0C4BD3ED001A21EE211A81EDEA
:100DA000021A037A1B04C47943EA04238479234397
:100DB00000EE903AB8EE601ADFED041A21EE211A27
:100DC00082ED001A10BD00001003002000401C42FC
:100DD000704710B5044620460CF0C8FA10BD10B597
:100DE000044620460BF0FEFF10BD000042781202C0
:100DF00012B203781A4300EE102AF8EEC00A144A21
:100E000092ED001A60EE810AC1ED000AC27812026A
:100E100012B283781A4300EE102AF8EEC00A0C4A88
:100E200092ED001A60EE810AC1ED010A42791202C8
:100E300012B203791A4300EE102AF8EEC00A044AEF
:100E400092ED001A60EE810AC1ED020A70470000BF
:100E50001403002010B50024FFF75CFFFFF7B8FF74
:100E60000BF0DCFC10B144F0800402E00BF03CFC21
:100E700004430BF0CBFE10B144F0400402E00BF051
:100E80004BFE0443204610BD2DE9FC4105460E46AD
:100E90001746002000900190FFF732FF922000F0EB
:100EA000D1F806226946122000F0ACF8FFF71EFFC9
:100EB0009DF80100000200B29DF8001040EA010414
:100EC00000EE104AB8EEC00A4C48D0ED000A20EE01
:100ED000200A86ED000A9DF80300000200B29DF88A
:100EE000021040EA010400EE104AB8EEC00A43487E
:100EF000D0ED000A20EE200A86ED010A9DF80500DB
:100F0000000200B29DF8041040EA010400EE104A0D
:100F1000B8EEC00A3948D0ED000A20EE200A86ED6E
:100F2000020AFFF703FF08226946002000F06AF872
:100F3000FFF7F2FE9DF800000F2838D19DF803005E
:100F4000000200B29DF8021040EA010400EE104ACF
:100F5000B8EEC00A2A48D0ED000A20EE200A85ED3E
:100F6000000A9DF80500000200B29DF8041040EA56
:100F7000010400EE104AB8EEC00A2148D0ED000A84
:100F800020EE200A85ED010A9DF80700000200B25C
:100F90009DF8061040EA010400EE104AB8EEC00ABF
:100FA0001748D0ED000A20EE200A85ED020AFFF76F
:100FB000A7FEA22000F046F802226946222000F097
:100FC00021F8FFF793FE9DF80000C0009DF8011086
:100FD00040EA6114B4F5806F02DBA4F5006004B24E
:100FE00000EE104AF8EEC00AB4EE001AB3EE070A9B
:100FF00000EE810A87ED000ABDE8FC8110030020A5
:101000001403002070B506460C46154646F08000D5
:1010100000F018F806E0552000F014F82070641C69
:10102000681EC5B2002DF6D170BD70B504460D46E0
:1010300044F0800000F006F8552000F003F8287016
:1010400070BD000001B582B04FF47A70012301AA8F
:1010500002A90090024803F0A9FE9DF804000EBD0D
:101060004C06002010B502461378DB00547843EAA2
:101070006410B0F5806F02DBA0F5006318B200EEDB
:10108000100AF8EEC00AB4EE001AB3EE070A00EE3A
:10109000810A81ED000A10BD70B505460C46284650
:1010A000FFF7D0FF2046FFF7CDFF70BD08B5072042
:1010B0000CF05CF9FFF7CEFEA949087003E0FFF7DA
:1010C000C9FEA7490870A64800780028F7D10CF09F
:1010D000D5F8A349087003E00CF0D0F8A0490870D7
:1010E0009F4800780028F7D19E4AA2F10C01101DFC
:1010F000FFF7CAFE9C489B4B103B9C4A9C490090C2
:101100009C480BF00BFFDFED9C0A9FED9C0A9C4A6C
:1011100000219C4805F0C4F9944A95499A48FFF784
:10112000DBFB934890ED000A984880ED000A984850
:1011300080ED000A974880ED000A8D4890ED010A85
:10114000924880ED010A924880ED010A914880EDB5
:10115000010A874890ED020A8C4880ED020A8C480B
:1011600080ED020A8B4880ED020A00200CF052F953
:1011700004460DF0FFFA8849086010218748C161D4
:1011800003F022FD08B100F0A1FE08228449854841
:1011900007F028FF012084490870E0E000BF4FF00D
:1011A000FF3101200CF056FD0128F8D17F4800786E
:1011B00000F0080058B17D48007820F008007B4915
:1011C00008706849091D7648401CFFF70FFE7848F3
:1011D000007800F0040060B17548007820F0040049
:1011E000734908705F4A1032A2F11C017148FFF781
:1011F000A7FD7148007800F0040048B16E480078FF
:1012000020F004006C49087056496C48FFF72AFF2B
:101210005548544B103B554A5549009055480BF0E2
:101220007DFE5B4890ED000A5A4880ED000A574861
:1012300090ED000A564880ED000A90ED000A6048E3
:10124000D0ED000A20EE200A5248D0ED000A5C489A
:1012500090ED011A00EE810A4548D0ED000A584889
:1012600090ED021A00EE810A484880ED000A4848D5
:1012700090ED010A474880ED010A444890ED010ACB
:10128000434880ED010A90ED010A4D48D0ED000A77
:1012900020EE200A3F48D0ED010A494890ED011A9E
:1012A00000EE810A3248D0ED010A454890ED021A5D
:1012B00000EE810A354880ED010A354890ED020ABA
:1012C000344880ED020A314890ED020A304880ED42
:1012D000020A90ED020A3A48D0ED000A20EE200AF8
:1012E0002C48D0ED020A364890ED011A00EE810A32
:1012F0001F48D0ED020A324890ED021A00EE810A32
:10130000224880ED020A194B02461A499FED2D0A28
:101310001D48FFF74DFC2C4B1A1F111F1A480BF0EC
:1013200089FD2948083890ED010A284880ED000A17
:101330002548083890ED000A244880ED010A244829
:10134000007800F0010050B12148007820F0010041
:101350001F4908700846007840F0020008701DE739
:10136000A402002054C4002098C4002044C50020DA
:1013700038C500202CC500200080894500A08C4580
:101380004C010108C0C4002050C5002020C5002029
:1013900014C5002008C50020000200204C060020D3
:1013A000040200200C020020290200202502002057
:1013B000260200203AC40020270200201F0200203D
:1013C000580101086F12833A68C500209C02002072
:1013D0002802002000BFFEE710B5024800F0A5FF7C
:1013E00010BD0000A805002010B5024800F09DFFC8
:1013F00010BD0000D0050020F8B507460E46144683
:101400001D4637600020B060F06008203061280A77
:1014100020706570280AA070E570280A2071657137
:10142000280AA071E5716B4622463146014800F05A
:1014300080FDF8BDA80500200346042B15D007DC6D
:101440007BB1012B0ED0022B0DD0032B12D10BE060
:10145000202B0BD0212B0AD0222B09D0232B09D1F2
:1014600007E008E007E006E005E004E003E002E052
:1014700001E000E000BF00BF00207047002070477F
:1014800010B500220449054808F0E3FB044903486D
:1014900008F0D8FB002010BD201500208408002093
:1014A000200D002070B505460C460849084808F094
:1014B000C9FB074808F0A2FB20880449A1F80008EE
:1014C000012081F80208002070BD0000E4C6002061
:1014D000840800202DE9F04104460D4600260A4804
:1014E000D0F89072D7F8140210B10120BDE8F08155
:1014F0002A462146044808F0ACFB034808F02DFCBE
:1015000006463046F2E700008408002010B5024885
:1015100001F04CFA10BD0000E407002010B5FE48B1
:10152000C06C0068FD49884276D9FC485438006890
:10153000F949C96C0968FA4A914201D1202169E050
:10154000F549C96C0968F54A483A914201D1202110
:1015500060E0F149C96C0968F14A6032914201D1F9
:10156000202157E0EC49C96C0968EC4A18329142D5
:1015700001D120214EE0E849C96C0968E84A1832D7
:10158000914201D1C91445E0E349C96C0968E34AB5
:10159000303A914201D1C9143CE0DF49C96C096875
:1015A000DF4A7832914201D1C91433E0DA49C96C7B
:1015B0000968DA4A3032914201D1C9142AE0D64989
:1015C000C96C0968D64A3032914202D14FF40011F9
:1015D00020E0D149C96C0968D04A183A914202D139
:1015E0004FF4001116E0CC49C96C0968CC4A90321E
:1015F000914202D14FF400110CE0C749C96C09684F
:10160000C64A4832914203D14FF4001102E003E090
:101610004FF00061084070E1BF48C06C0068C049ED
:10162000A831884276D9BD4858380068BA49C96C93
:101630000968BB4A914201D1202169E0B649C96CD1
:101640000968B64A483A914201D1202160E0B24986
:10165000C96C0968B24A6032914201D1202157E039
:10166000AD49C96C0968AD4A1832914201D12021B7
:101670004EE0A949C96C0968A94A1832914201D1C2
:10168000C91445E0A449C96C0968A44A303A91429A
:1016900001D1C9143CE0A049C96C0968A04A78325C
:1016A000914201D1C91433E09B49C96C09689B4A36
:1016B0003032914201D1C9142AE09749C96C0968B6
:1016C000974A3032914202D14FF4001120E0924902
:1016D000C96C0968914A183A914202D14FF400113D
:1016E00016E08D49C96C09688D4A9032914202D149
:1016F0004FF400110CE08849C96C0968874A4832E8
:10170000914203D14FF4001102E003E04FF0006179
:101710000840F2E08048C06C006881494831884246
:1017200076D97F48103840687B49C96C09687C4A83
:10173000914201D1202169E07749C96C0968774A53
:10174000483A914201D1202160E07349C96C09688F
:10175000734A6032914201D1202157E06E49C96C31
:1017600009686E4A1832914201D120214EE06A493F
:10177000C96C09686A4A1832914201D1C91445E01E
:101780006549C96C0968654A303A914201D1C9146A
:101790003CE06149C96C0968614A7832914201D1E3
:1017A000C91433E05C49C96C09685C4A3032914223
:1017B00001D1C9142AE05849C96C0968584A303225
:1017C000914202D14FF4001120E05349C96C0968DD
:1017D000524A183A914202D14FF4001116E04E4994
:1017E000C96C09684E4A9032914202D14FF40011FF
:1017F0000CE04949C96C0968484A4832914203D112
:101800004FF4001102E003E04FF00061084074E083
:101810004348103800684049C96C0968404A914201
:1018200001D1202168E03C49C96C09683B4A483A2B
:10183000914201D120215FE03749C96C0968384ADB
:101840006032914201D1202156E03349C96C0968C8
:10185000324A1832914201D120214DE02E49C96C03
:1018600009682F4A1832914201D1C91444E02A492B
:10187000C96C0968294A303A914201D1C9143BE048
:101880002549C96C0968264A7832914201D1C914A8
:1018900032E02149C96C0968204A3032914201D1B5
:1018A000C91429E01C49C96C09681D4A30329142AB
:1018B00002D14FF400111FE01749C96C0968174A9B
:1018C000183A914202D14FF4001115E01249C96C47
:1018D0000968134A9032914202D14FF400110BE093
:1018E0000D49C96C09680D4A4832914202D14FF442
:1018F000001101E04FF00061084000286FD0064859
:10190000C06C0068054988427BD90348C06C0068F8
:101910000349884208D105E04C0600205864024083
:1019200010600240202068E0FE48C06C0068FE495C
:10193000884201D1202060E0FA48C06C0068FB4971
:10194000884201D1202058E0F648C06C0068F64972
:101950006031884201D120204FE0F248C06C00681D
:10196000F2494839884201D1C01446E0ED48C06CC4
:101970000068ED491831884201D1C0143DE0E948C2
:10198000C06C0068E9491831884201D1C01434E0C4
:10199000E448C06C0068E4497831884201D1C01441
:1019A0002BE0E048C06C0068E0493039884202D141
:1019B0004FF4001021E0DB48C06C0068DA49303198
:1019C000884202D14FF4001017E0D648C06C00687E
:1019D000D6493031884204D14FF400100DE0DFE1E8
:1019E0000FE0D048C06C0068CF499031884202D1E6
:1019F0004FF4001001E04FF00060CB49091F086070
:101A00006AE1C848C06C0068C8494831884274D946
:101A1000C448C06C0068C5496039884201D12020A3
:101A200066E0C048C06C0068BF49884201D12020F0
:101A30005EE0BC48C06C0068BC49884201D12020EF
:101A400056E0B848C06C0068B7496031884201D19F
:101A500020204DE0B348C06C0068B4494839884242
:101A600001D1C01444E0AF48C06C0068AE491831E1
:101A7000884201D1C0143BE0AA48C06C0068AB4961
:101A80001831884201D1C01432E0A648C06C006809
:101A9000A5497831884201D1C01429E0A148C06C21
:101AA0000068A2493039884202D14FF400101FE08B
:101AB0009C48C06C00689C493031884202D14FF488
:101AC000001015E09748C06C006898493031884292
:101AD00002D14FF400100BE09248C06C00689249AC
:101AE0009031884202D14FF4001001E04FF00060C5
:101AF0008D4908390860EFE0FFE78A48C06C00684C
:101B00008A491839884274D98648C06C0068874968
:101B10006039884201D1202066E08248C06C0068AC
:101B20008149884201D120205EE07E48C06C006877
:101B30007E49884201D1202056E07A48C06C006876
:101B400079496031884201D120204DE07548C06C50
:101B5000006876494839884201D1C01444E0714890
:101B6000C06C006870491831884201D1C0143BE054
:101B70006C48C06C00686D491831884201D1C014AE
:101B800032E06848C06C006867497831884201D10A
:101B9000C01429E06348C06C006864493039884249
:101BA00002D14FF400101FE05E48C06C00685E492F
:101BB0003031884202D14FF4001015E05948C06C12
:101BC00000685A493031884202D14FF400100BE0CE
:101BD0005448C06C006854499031884202D14FF497
:101BE000001001E04FF0006050497039C86073E0A8
:101BF000FFE74C48C06C00684C496039884201D10D
:101C0000202066E04748C06C00684749884201D1FF
:101C100020205EE04348C06C00684449884201D1FE
:101C2000202056E03F48C06C00683F496031884240
:101C300001D120204DE03B48C06C00683B49483949
:101C4000884201D1C01444E03648C06C006836496F
:101C50001831884201D1C0143BE03248C06C0068A2
:101C600032491831884201D1C01432E02D48C06C8D
:101C700000682D497831884201D1C01429E02948F3
:101C8000C06C006829493039884202D14FF40010F5
:101C90001FE02448C06C006823493031884202D1DB
:101CA0004FF4001015E01F48C06C00681F49303128
:101CB000884202D14FF400100BE01A48C06C006853
:101CC00019499031884202D14FF4001001E04FF0E1
:101CD00000601649703988601548007800F00200ED
:101CE00078B11348007820F00200114908700846C6
:101CF000007840F004000870012211460D4801F000
:101D000061F90D48007800F00200E0B10A4800785F
:101D100020F00200084908700846007840F00400EE
:101D200008700BE04C060020106402407060024016
:101D3000250200200004024026020020012210217A
:101D4000184801F03FF91848007800F0020078B117
:101D50001548007820F00200134908700846007802
:101D600040F004000870012210210E4801F02AF909
:101D70000BF06AF90D48007800F0040080B10B48C0
:101D8000007820F00400094908700846007840F007
:101D9000080008700648006840F001000449086027
:101DA00010BD000000000240270200202502002094
:101DB000103C014010B5024800F0F8FD10BD0000D5
:101DC000040700200146087810381823B0FBF3F20E
:101DD0000848805CC865032A05D908686FF30900C4
:101DE000001D886503E008686FF309008865886D49
:101DF000704700002C000108014600208A6A8B69A8
:101E0000CBB932B1012A0DD0022A03D0032A10D156
:101E10000EE000BFCB6A03F08073B3F1807F00D186
:101E2000012007E0CB6AB3F1C07F00D1012001E0BF
:101E300000E000BF34E08B69B3F5005F1AD132B126
:101E4000012A07D0022A03D0032A11D10AE000BFD9
:101E500001200EE0CB6A03F08073B3F1807F00D1E4
:101E6000012006E0CB6AB3F1C07F00D1012000E081
:101E700000BF15E032B1012A05D0022A04D0032A9E
:101E80000CD103E000BF00BF012008E0CB6A03F0E3
:101E90008073B3F1807F00D1012000E000BF00BF5C
:101EA0007047704710B5012000F07EFF10BD10B5DF
:101EB000082000F079FF10BD10B5102000F074FF6D
:101EC00010BD10B5202000F06FFF10BD72B600BF2E
:101ED000FEE7000070B50A480468001D0568001D93
:101EE0000668344454B108220649204603F07BFDBD
:101EF000042204491031284603F075FD70BD00002E
:101F0000107AFF1F5200002010B5024692F82030D0
:101F1000012B01D0022B06D11068406908431468D8
:101F20006061002010BD506A40F4802050620120A2
:101F3000F8E7F0B504460D461E4694F82070206878
:101F40008368A86800B900E000BF012F01D0022F0C
:101F50007CD103F0806030B903F0006018B903F061
:101F60008050002873D0C3F30161022905D9606A4B
:101F700040F4000060620120F0BD01208840306024
:101F8000A86860B9B5F800C0E86840EA4C5C206811
:101F900000F5C07000EB0110C0F800C00FE0D5E9FB
:101FA00001C040EACC00D5F80CC040EA0C00D4F8DF
:101FB00000C00CF5C07C0CEB011CCCF80000D5F87F
:101FC00010C0206800F5C07000EB0110C0F804C01C
:101FD000287D01280ED1206800F5C07000EB0110AB
:101FE000406840F4807C206800F5C07000EB011070
:101FF000C0F804C0D079000692F806C040EA0C4050
:1020000092F805C040EA0C2C10794CEA000C2068CC
:1020100000F5C07000EB0110C0F80CC0D0780006CD
:1020200092F802C040EA0C4092F801C040EA0C204D
:1020300092F800C040EA0C00D4F800C00CF5C07C57
:102040000CEB011CCCF80800206801E016E00FE062
:1020500000F5C07000EB0110006840F0010C206832
:1020600000F5C07000EB0110C0F800C0002083E74D
:10207000606A40F40010606201207DE7606A40F40D
:1020800080206062012077E7F0B504460A462168A7
:1020900094F82050012D01D0022D7ED1424901F546
:1020A0000071086840F001000860086820F47C5066
:1020B00008600868566A40EA06200860107D00F053
:1020C0001F06012000FA06F3C8699843C861A1F50C
:1020D0000071D069C8B9D1F80C029843C1F80C025C
:1020E000908880B2968940EA064601F510705769DB
:1020F00040F83760108880B2168940EA064601F53C
:102100001070576900EBC7004660D069012819D1EB
:10211000D1F80C021843C1F80C02908880B21688DE
:1021200040EA064601F51070576940F8376090891B
:1021300080B2168940EA064601F51070576900EB37
:10214000C7004660906928B9D1F804029843C1F8E5
:10215000040204E0D1F804021843C1F80402106933
:1021600028B9D1F814029843C1F8140204E0D1F858
:1021700014021843C1F81402106A012804D1D1F8DE
:102180001C021843C1F81C02D1F8000220F0010023
:10219000C1F800020020F0BDFFE7606A40F4802033
:1021A00060620120F7E7000000640040704770B5EE
:1021B000044694F82050012D01D0022D7CD151B954
:1021C0002068C06800F0030080B9606A40F4001025
:1021D0006062012070BD2068006900F0030028B92A
:1021E000606A40F4001060620120F3E7206800F5A7
:1021F000D87000EB0110006800F004009060906857
:1022000040B9206800F5D87000EB01100068400D5F
:10221000106007E0206800F5D87000EB011000683E
:10222000C0085060206800F5D87000EB011000680D
:1022300000F002004008D060206800F5D87000EB84
:102240000110406800F00F001061206800F5D870A0
:1022500000EB0110406800F47F40000A90612068A4
:1022600000F5D87000EB01104068000C5061206848
:1022700000F5D87000EB011080681870206800F538
:10228000D87000EB0110806800F47F40000A58709D
:10229000206800F5D87000EB0110806800F47F0022
:1022A000000C9870206800F5D87000EB0110806871
:1022B000000ED870206800E031E000F5D87000EB27
:1022C0000110C0681871206800F5D87000EB01108B
:1022D000C06800F47F40000A5871206800F5D8708B
:1022E00000EB0110C06800F47F00000C98712068BA
:1022F00000F5D87000EB0110C068000ED87131B93C
:102300002068C06840F020002668F06005E0206882
:10231000006940F020002668306100205AE7606ABA
:1023200040F480206062012054E72DE9F05F04460C
:102330000025206846692068D0F8049020688768E6
:102340002068D0F80CA02068D0F810B02068D0F831
:10235000188006F00100002855D007F00100C0B138
:1023600001202168886007F0020018B1204600F0C3
:1023700016FB0EE007F0040010B145F4006508E01C
:1023800007F0080010B145F4805502E0204600F047
:1023900005FB07F48070C8B14FF480702168886035
:1023A00007F4007018B1204600F0FBFA0EE007F4C5
:1023B000806010B145F4005508E007F4006010B1EA
:1023C00045F4804502E0204600F0EAFA07F4803048
:1023D000C8B14FF480302168886007F4003018B12C
:1023E000204600F0E0FA0EE007F4802010B145F43A
:1023F000004508E007F4002010B145F4803502E004
:10240000204600F0CFFA06F0080038B10AF01000BC
:1024100020B145F4007510202168C86006F0040062
:1024200040B10AF0080028B108202168C8602046A1
:1024300000F00CFA06F0020038B12068C06800F025
:10244000030010B1204600F003FA06F0400038B156
:102450000BF0100020B145F4806510202168086160
:1024600006F0200040B10BF0080028B108202168D8
:102470000861204600F060FA06F0100038B12068CC
:10248000006900F0030010B1204600F056FA06F48F
:10249000003040B109F0100028B1102021684860D8
:1024A000204600F04BFA06F4803040B109F00800F5
:1024B00028B1082021684860204600F075FA06F42B
:1024C000004088B309F0040078B306F4807020B1AE
:1024D00008F0010008B145F0010506F4007020B1D4
:1024E00008F0020008B145F0020506F4806020B152
:1024F00008F0040008B145F0040506F40060A0B13E
:1025000008F0700088B108F07000402817D006DC91
:1025100010280BD020280CD0302819D10CE05028DE
:1025200010D0602814D110E01DE019E045F0080536
:102530000FE045F010050CE045F0200509E045F0FE
:10254000400506E045F0800503E045F4807500E0B5
:1025500000BF00BF2068806920F07000216888619A
:102560000420216848602DB1606A284360622046DB
:10257000FFF71CFEBDE8F09F70B504460CB90120C2
:1025800070BD94F8200010B9204600F0AFF8206824
:10259000006820F002002168086000F019FD05467F
:1025A0000DE000F015FD401B0A2808D9606A40F4D0
:1025B00000306062052084F820000120E0E72068F8
:1025C000406800F002000028EBD12068006840F06D
:1025D00001002168086000F0FBFC05460DE000F0FA
:1025E000F7FC401B0A2808D9606A40F4003060629A
:1025F000052084F820000120C2E72068406800F030
:1026000001000028EBD0207E012806D12068006858
:1026100040F080002168086005E02068006820F034
:10262000800021680860607E012806D1206800686B
:1026300040F040002168086005E02068006820F054
:10264000400021680860A07E012806D1206800684B
:1026500040F020002168086005E02068006820F054
:10266000200021680860E07E012806D1206800680B
:1026700020F010002168086005E02068006840F044
:10268000100021680860207F012806D120680068BA
:1026900040F008002168086005E02068006820F02C
:1026A000080021680860607F012806D12068006862
:1026B00040F004002168086005E02068006820F010
:1026C000040021680860D4E9020108432169084335
:1026D000616908436168491E08432168C861002098
:1026E0006062012084F82000002049E710B586B020
:1026F0000446142101A8FDF77DFF4E492068884259
:1027000041D14D480068401C4B49086008460068AC
:1027100001280FD100BF002000904848006840F019
:102720000070464908600846006800F0007000909C
:1027300000BF00BF00BF0020009040481038006874
:1027400040F008003D49103908600846006800F074
:102750000800009000BF00BF0320019002200290FB
:1027600000200390032004900920059001A934481B
:1027700000F028FB00220521142001F04FF814205E
:1027800001F03CF854E02F492068884250D100BF46
:10279000002000902948006840F0806027490860C8
:1027A0000846006800F08060009000BF00BF22482B
:1027B0000068401C204908600846006801280FD1C5
:1027C00000BF002000901D48006840F000701B49C9
:1027D00008600846006800F00070009000BF00BF6D
:1027E00000BF0020009015481038006840F002003B
:1027F0001249103908600846006800F00200009095
:1028000000BF00BF602001900220029000200390D2
:10281000032004900920059001A90B4800F0D2FA8A
:1028200000220521402000F0F9FF402000F0E6FFE3
:1028300006B010BD0064004018000020403802407F
:10284000000C024000680040000402407047000095
:1028500010B58AB0044601AB03AA00212046FFF759
:10286000A6FC0398A0F2012010B106285CD12CE050
:102870002F4840882E4988800846008800B2488149
:102880009DF805009DF8041040EA012028490880C1
:102890009DF807009DF8061040EA012000B2244987
:1028A00048809DF809009DF8081040EA012000B218
:1028B0001F49C8809DF80A0008729DF80B00087334
:1028C00000F086FB1A4908612FE01A484088194930
:1028D00088800846008800B248819DF805009DF870
:1028E000041040EA0120134908809DF807009DF874
:1028F000061040EA012000B20E4948809DF8090008
:102900009DF8081040EA012000B20A49C8809DF8ED
:102910000A0008729DF80B0008730020087300F08D
:1029200057FB0449086100E000BF00BF0AB010BDBA
:102930009CC50020B0C5002070477047704770B537
:10294000044694F82000012822D1022084F82000B7
:102950002068006820F001002168086000F038FB62
:1029600005460DE000F034FB401B0A2808D9606AD8
:1029700040F400306062052084F82000012070BD22
:102980002068406800F001000028EBD16062F6E7A3
:10299000606A40F4002060620120F0E770477047F1
:1029A000704770477047704770470000F8B504469D
:1029B000002000908C4800684FF41651B0FBF1F7EE
:1029C000A56D2E6894F85C1008208840304098B1BE
:1029D0002068006800F0040070B12068006820F0F2
:1029E00004002168086094F85C1008208840A86002
:1029F000606D40F00100606594F85C100120884033
:102A0000304068B12068406900F0800040B194F81F
:102A10005C1001208840A860606D40F00200606595
:102A200094F85C1004208840304068B12068006849
:102A300000F0020040B194F85C1004208840A860C7
:102A4000606D40F00400606594F85C1010208840D0
:102A5000304078B32068006800F0080050B394F864
:102A60005C1010208840A8602068006800F4802076
:102A700080B12068006800F4002028B9206CC8B13B
:102A80002046216C884715E0A06C98B12046A16CC7
:102A900088470FE02068006800F4807028B920683B
:102AA000006820F0080021680860206C10B1204602
:102AB000216C884794F85C10202088403040002822
:102AC00065D02068006800F0100000285FD094F8FE
:102AD0005C1020208840A86094F83500052828D193
:102AE0002068006820F016002168086020684069AE
:102AF00020F0800021684861206C08B9A06C28B1E2
:102B00002068006820F008002168086094F85C10D4
:102B10003F208840A86000BF002084F8340000BF38
:102B2000012084F83500206D10B12046216D8847C2
:102B3000F8BD2068006800F4802080B1206800683B
:102B400000F4002028B9606C10B12046616C884701
:102B50001DE0E06BD8B12046E16B884717E02068A4
:102B6000006800F4807068B92068006820F01000E8
:102B70002168086000BF002084F8340000BF0120F5
:102B800084F83500E06B10B12046E16B8847606D3A
:102B900038B3606D00F00100F0B1052084F8350015
:102BA0002068006820F001002168086000BF0098DC
:102BB000401C0090B84200D905E02068006800F091
:102BC00001000028F3D100BF00BF002084F83400CA
:102BD00000BF012084F83500E06C10B12046E16CA4
:102BE000884700BFA4E70000880000202DE9F041DD
:102BF0000446002500F0ECF9074614B90120BDE8B1
:102C0000F081606A00B100BF00BF002084F834008A
:102C100000BF022084F835002068006820F0010021
:102C2000216808600AE000F0D3F9C01B052805D927
:102C300020206065032084F83500E0E72068006804
:102C400000F001000028EED1206805682148054009
:102C5000D4E901010843E168084321690843616937
:102C60000843A1690843E1690843216A0843054311
:102C7000606A042803D1D4E90B01084305432068A6
:102C800005602068456925F00705606A0543606AAC
:102C900004280DD1A06A0543E06A48B12046FFF739
:102CA000ABF828B140206065012084F83500A6E724
:102CB000206845612046FFF785F8064694F85C10C9
:102CC0003F208840B06000206065012084F8350016
:102CD000002094E73F8010F070B5044600F078F9CA
:102CE00006462546681C10B104480078054400BF1C
:102CF00000F06EF9801BA842FAD370BD840000205A
:102D000010B50446102C11D11F48007840F0010086
:102D10001D4908701D48007840F001001B490870EB
:102D20001B48007870B30AF08FF92BE0202C0BD1F0
:102D30001848007840F001001649087014480078DF
:102D400000B30AF081F91DE0082C06D11248007882
:102D500040F001001049087014E0012C12D10BF072
:102D60005BFD01280ED00D490D4800680BF0B8F945
:102D70000A48006830B120070A490860BFF34F8F46
:102D8000BFF36F8F10BD0000260200202702002035
:102D9000290200202502002028020020B002002085
:102DA0000002002004ED00E010B50446044800686D
:102DB000204020B1024804602046FFF7A1FF10BD6B
:102DC000143C0140F8B502460B46002500240020C3
:102DD0000021DCE0012606FA01F51E6806EA05047A
:102DE000AC4273D15E68022E02D05E68122E13D1FF
:102DF000CF0802F1200656F827004E07F70E0F26DF
:102E0000BE40B0434F07FF0E1E69BE403043CF089F
:102E100002F1200646F8270010684F000326BE4046
:102E2000B0431E7906F003064F00BE4030431060E9
:102E30005E68012E08D05E68022E05D05E68112EF5
:102E400002D05E68122E13D190684F000326BE4058
:102E5000B0434F00DE68BE403043906050680126AA
:102E60008E40B0431E79C6F300168E40304350604A
:102E7000D0684F000326BE40B0434F009E68BE405E
:102E80003043D0605E6806F08056B6F1805F7DD139
:102E900000BF00260096404E366846F480463E4FFE
:102EA0003E603E46366806F48046009600BF00BF8E
:102EB0003A4E8F0856F827008E07370F0F26BE4070
:102EC000B043374EB24202D1002624E05EE0354ED8
:102ED000B24201D101261EE0334EB24201D1022698
:102EE00019E0324EB24201D1032614E0304EB24214
:102EF00001D104260FE02F4EB24201D105260AE08F
:102F00002D4EB24201D1062605E02C4EB24201D12F
:102F1000072600E008268F073F0FBE4030431F4EB4
:102F20008F0846F82700264E3068A0435E6806F4F6
:102F30008036B6F5803F00D12043214E3060361DEB
:102F40003068A0435E6806F40036B6F5003F00D155
:102F500020431B4E361D3060361D3068A0435E682E
:102F600006F48016B6F5801F00D12043144E0836B3
:102F70003060361D3068A0435E6806F40016B6F572
:102F8000001F00D120430E4E0C363060491C102922
:102F9000FFF420AFF8BD000044380240083801407B
:102FA000000002400004024000080240000C024001
:102FB000001002400014024000180240001C0240B1
:102FC000003C01400AB1816101E00B04836170475C
:102FD00001480068704700007C00002070B504467E
:102FE0000CB9012070BD94F83D0028B9002084F888
:102FF0003C00204600F0FAFA242084F83D002068C6
:10300000006820F001002168086001F041FB0546DE
:103010005C496068884206D85B48854201D201203D
:1030200007E0002005E05948854201D2012000E078
:103030000020012800D1D5E75548B5FBF0F62068FF
:10304000406820F03F003043216848604D49606887
:10305000884201D8701C07E04FF4967070434FF41B
:103060007A71B0FBF1F0401C2168096A21F03F0140
:1030700008432168086243496068884214D8681E82
:1030800061684900B0FBF1F0401CC0F30B0004285C
:1030900001D204203DE0681E61684900B0FBF1F0F8
:1030A000401CC0F30B0034E0A06838B9681E6168AA
:1030B00001EB4101B0FBF1F0401C0AE0681E6168C1
:1030C00001EBC10202EB0111B0FBF1F0401C40F436
:1030D0008040C0F30B0008B901201AE0A06848B98D
:1030E000681E616801EB4101B0FBF1F0401CC0F3C8
:1030F0000B000CE0681E616801EBC10202EB0111DC
:10310000B0FBF1F0401CC0F30B0040F4804040F4F1
:1031100000402168C9694CF6FF7291430843216859
:10312000C861D4E9070108432168096821F0C0019A
:10313000084321680860D4E90310084321688968BE
:1031400048F2FF329143084321688860D4E90501C1
:1031500008432168C96821F0FF0108432168C8605D
:103160002068006840F001002168086000202064A9
:10317000202084F83D000020206384F83E0000BF3A
:1031800030E70000A086010080841E0000093D0099
:1031900040420F002DE9FC5F04460F4690469946D9
:1031A000DDE90CAB0E9EFFF713FF054694F83D00DA
:1031B000202870D119230122B0492046009502F041
:1031C000FFFA10B10220BDE8FC9F00BF94F83C005C
:1031D000012801D10220F6E7012084F83C0000BF5D
:1031E0002068006800F0010028B92068006840F0FD
:1031F0000100216808602068006820F400602168F0
:103200000860222084F83D00402084F83E00002021
:103210002064C4F824A0A4F82AB0608D20859848C2
:10322000E0624B46424639462046CDE9006502F051
:1032300097F908B10120C6E7208D88B900BF0020AA
:10324000019020684069019020688069019000BF6A
:1032500000BF2068006840F400702168086040E00A
:10326000208D012818D12068006820F48060216832
:10327000086000BF0020019020684069019020682C
:103280008069019000BF00BF2068006840F40070B2
:103290002168086025E0EFE0208D022816D1206823
:1032A000006820F48060216808602068006840F4AD
:1032B00000602168086000BF00200190206840691C
:1032C000019020688069019000BF0AE000BF0020E3
:1032D000019020684069019020688069019000BFDA
:1032E00000BFBAE0208D03287ED8208D012815D19B
:1032F0002A463146204602F008FB08B1012062E769
:1033000020680069616A0870606A401C6062208DF4
:10331000401E2085608D401E60859EE0208D022825
:103320002AD13346002257492046009502F048FA38
:1033300008B1012047E72068006840F40070216868
:10334000086020680069616A0870606A401C6062F9
:10335000208D401E2085608D401E6085206800699C
:10336000616A0870606A401C6062208D401E208582
:10337000608D401E608570E0334600224149204642
:10338000009502F01DFA08B101201CE720680068D2
:1033900020F480602168086020680069616A087014
:1033A000606A401C6062208D401E2085608D401E3A
:1033B00060853346002233492046009502F000FA2A
:1033C00008B10120FFE62068006840F40070216821
:1033D000086020680069616A0870606A401C606269
:1033E000208D401E208500E010E0608D401E60852D
:1033F00020680069616A0870606A401C6062208D04
:10340000401E2085608D401E608526E02A4631469C
:10341000204602F07AFA08B10120D4E6206800695B
:10342000616A0870606A401C6062208D401E2085C1
:10343000608D401E608520684069C0F3800060B1E7
:1034400020680069616A0870606A401C6062208DB3
:10345000401E2085608D401E6085208D00287FF4F1
:1034600041AF202084F83D00002084F83E0000BFDA
:1034700084F83C0000BFA6E60220A4E6020010008B
:103480000000FFFF040001002DE9FC5F04460F4629
:1034900090469946DDE90CAB0E9EFFF799FD054677
:1034A00094F83D0020287DD1192301224D49204662
:1034B000009502F085F910B10220BDE8FC9F00BF25
:1034C00094F83C00012801D10220F6E7012084F89D
:1034D0003C0000BF2068006800F0010028B92068A7
:1034E000006840F00100216808602068006820F44E
:1034F000006021680860212084F83D00402084F8A5
:103500003E0000202064C4F824A0A4F82AB0608DF6
:1035100020853548E0624B46424639462046CDE993
:10352000006502F0B9F808B10120C6E731E02A468B
:103530003146204602F029FA50B1206C042805D10A
:103540002068006840F40070216808600120B4E73A
:10355000606A007821680861606A401C6062208DA2
:10356000401E2085608D401E608520684069C0F344
:10357000800070B1208D60B1606A007821680861B8
:10358000606A401C6062208D401E2085608D401E58
:103590006085208D0028CAD12A463146204602F097
:1035A000E1F800E01CE050B1206C042805D120684F
:1035B000006840F400702168086001207DE7206801
:1035C000006840F4007021680860202084F83D0005
:1035D000002084F83E0000BF84F83C0000BF6CE788
:1035E00002206AE7020010000000FFFF10B586B05D
:1035F0000446142101A8FCF7FDFF2A4920688842EF
:103600004DD100BF002000902748006840F0040022
:10361000254908600846006800F00400009000BFDB
:1036200000BF00BF002000900846006840F0010085
:1036300008600846006800F00100009000BF00BF6D
:10364000481501901220029001200390032004905D
:103650000420059001A91548FFF7B4FB4FF48070D2
:103660000190122002900120039003200490042076
:10367000059001A90E48FFF7A5FB00BF00200090B0
:1036800009481030006840F4000007491031086014
:103690000846006800F40000009000BF00BF06B0BC
:1036A00010BD0000005C00403038024000080240BD
:1036B00000000240034800680349097808440149B2
:1036C000086070477C0000208400002010B50D4881
:1036D000006840F400700B4908600846006840F438
:1036E000806008600846006840F48070086003202D
:1036F00000F0D2F80F2000F007F800F055F8002095
:1037000010BD0000003C0240F0B587B00446002622
:10371000002700BF002000901E48006840F0010014
:103720001C4908600846006800F00100009000BFD6
:1037300000BF01A902A800F083FF00F0B9FF460016
:103740001548B6FBF0F0471E14481549086040F2D2
:10375000E7311348C16047600021016181608161E8
:1037600001F03BFC054695B90D4801F075FC054696
:103770006DB9192000F042F8102C07D20022214622
:10378000192000F04BF80748046000E001252846A6
:1037900007B0F0BD4438024040420F000000014035
:1037A000440800208000002008B500BF00200090E1
:1037B0001148006840F480400F49086008460068DE
:1037C00000F48040009000BF00BF00BF00200090C8
:1037D000081F006840F08050091F08600846006814
:1037E00000F08050009000BF00BF00220F21901E0B
:1037F00000F014F808BD00004438024001460846B5
:10380000002809DB00F01F0301229A4043099B00B6
:1038100003F1E023C3F8002100BF70472DE9F05FFA
:1038200080460D461646002708F07AF907463946C5
:103830002A46334601F00700C0F1070ABAF1040F27
:1038400002D94FF0040A01E0C0F1070AD14600F1A5
:10385000040ABAF1070F02D24FF0000A01E0A0F10A
:10386000030AD4464FF0010A0AFA09FAAAF1010A3A
:103870000AEA020A0AFA0CFA4FF0010B0BFA0CFBE7
:10388000ABF1010B0BEA030B4AEA0B04214640465D
:1038900008F04EF9BDE8F09F00BF00F00702064BAC
:1038A00019684FF6FF031940044B0B4343EA02210A
:1038B000014B196000BF70470CED00E00000FA05F5
:1038C000704702461068416200207047F0B5034619
:1038D00015461868446A21B944EA05401E68B0627A
:1038E00019E01868806A04EB1044002208E01868A8
:1038F00000F5827050F8220004EB1044501CC2B254
:10390000481E9042F3D844EA0547186800F58270D3
:103910004E1E40F826700020F0BD10B50446D4F8C5
:10392000040406F09BFD10BD70B504460D46C5EBC2
:10393000C50304F13C0101EB8301CA682946D4F8B0
:10394000040406F0B8FC70BD70B504460D46C5EB26
:10395000C50304F5FE7101EB8301CA682946D4F85A
:10396000040406F028FD70BD10B50446D4F8040424
:1039700006F077FD10BD70B504460E4606F08000D7
:1039800080280AD106F00F00C0EBC00104F13C0012
:1039900000EB81050120687009E006F00F00C0EB24
:1039A000C00104F5FE7000EB81050020687006F090
:1039B0000F00287000BF94F8BC03012801D1022039
:1039C00070BD012084F8BC0300BF2946206807F0C1
:1039D00049FA00BF002084F8BC0300BF00BFEFE736
:1039E00070B504460E4606F00F006168884201D9A2
:1039F000012070BD06F0800080280AD106F00F007B
:103A0000C0EBC00104F13C0000EB810501206870AF
:103A100009E006F00F00C0EBC00104F5FE7000EBFA
:103A20008105002068700020A87006F00F00287043
:103A300000BF94F8BC03012801D10220D9E701207E
:103A400084F8BC0300BF2946206807F0B3FC00BF20
:103A5000002084F8BC0300BF00BFCAE7024601F0A3
:103A60000F00C0EBC00302F5FE7000EB830080691D
:103A700070472DE9F04705460E4690461F464FF029
:103A8000000906F0800080280AD106F00F00C0EB84
:103A9000C00105F13C0000EB81040120607009E0E9
:103AA00006F00F00C0EBC00105F5FE7000EB8104CD
:103AB0000020607006F00F002070C4F80880E770E6
:103AC000607808B12078E080022F01D100202071B9
:103AD00000BF95F8BC03012802D10220BDE8F087A1
:103AE000012085F8BC0300BF2146286807F0C6F80E
:103AF00000BF002085F8BC0300BF4846EEE72DE973
:103B0000F04104460E461746984606F00F00C0EBFB
:103B1000C00104F5FE7000EB8105EF60C5F814806C
:103B20000020A861687006F00F0028702069012845
:103B300000D12F6106F00F0028B9227C29462068A9
:103B400007F014FB04E0227C2946206807F0C6FC3D
:103B50000020BDE8F08170B504460D4605F00F0069
:103B60006168884201D9012070BD05F0800080287D
:103B70000AD105F00F00C0EBC00104F13C0000EBDE
:103B800081060120707007E0C5EBC50104F5FE70E9
:103B900000EB8106002070700120B07005F00F006E
:103BA000307000BF94F8BC03012801D10220DBE78C
:103BB000012084F8BC0300BF3146206807F041FCB7
:103BC00005F00F0028B9217C04F57172206807F018
:103BD000B9FB00BF002084F8BC0300BF00BFC3E7EF
:103BE0002DE9F04104460E461746984606F00F00B0
:103BF000C0EBC00104F13C0000EB8105EF60C5F8AB
:103C000014800020A8610120687006F00F00287061
:103C10002069012800D12F6106F00F0028B9227C0D
:103C20002946206807F0A2FA04E0227C2946206891
:103C300007F054FC0020BDE8F0812DE9FE4F04465A
:103C400020680290029E206807F033FE00287DD194
:103C5000206807F06DFE08B9BDE8FE8F206807F008
:103C600067FE00F00200022805D12068406900F0DC
:103C7000020021684861206807F05AFE00F4002025
:103C8000B0F5002F58D10025206807F021FE8246AC
:103C90004FE00AF00100002848D0E9B2206807F0A0
:103CA0003AFE804608F0010048B1012106F5306077
:103CB00000EB451081602946204602F0A1F908F08A
:103CC0000800082809D12946204602F053F90821A6
:103CD00006F5306000EB4510816008F010001028F8
:103CE00005D1102106F5306000EB4510816008F029
:103CF000200020280ED12069012805D104F5717219
:103D00000121206807F01EFB202106F5306000EB42
:103D10004510816008F40050B0F5005F06D14FF403
:103D2000005106F5306000EB451081606D1C4FEAD4
:103D30005A0ABAF1000FACD1206807F0F9FD00F47F
:103D40008020B0F5802F7ED1206800E012E207F0DD
:103D5000B5FD8246002586E00AF0010000287FD0EC
:103D6000E9B2206807F0BEFD804608F00100E8B324
:103D700005F00F0101208840019040F63400815980
:103D8000019821EA000040F634018851012106F52E
:103D9000106000EB451081602069012815D1C5EB4A
:103DA000C50104F13C0000EB8100C5EBC502C16810
:103DB00004F13C0000EB820080680144C5EBC502C1
:103DC00004F13C0000EB8200C160E9B22046FFF73D
:103DD000ABFD2069012810D145B9C5EBC50104F13F
:103DE0003C0000EB8100406900B900E005E004F50B
:103DF00071720121206807F0A5FA08F00800082870
:103E000005D1082106F5106000EB4510816008F02F
:103E10001000102805D1102106F5106000EB4510A8
:103E2000816008F04000402805D1402106F510606F
:103E300000EB4510816008F00200022808D1022141
:103E400006F5106001E012E00AE000EB4510816029
:103E500008F08000802803D12946204602F090F91E
:103E60006D1C4FEA5A0ABAF1000F7FF475AF206853
:103E700007F05EFD00F00040B0F1004F1CD140F6AD
:103E80000400805920F0010140F60400815194F8AB
:103E9000F403012807D1002084F8F4030021204610
:103EA000FFF70EFD02E0204600F098FA2068406916
:103EB00000F0004021684861206807F039FD00F4F7
:103EC0000060B0F5006F0ED140F60800805900F098
:103ED000010010B1204600F0D9FA2068406900F4D2
:103EE000006021684861206807F022FD00F48050DE
:103EF000B0F5805F72D140F60400805920F00101D6
:103F000040F6040081511021206807F0A7FC00272B
:103F100026E04FF67F3106F5106000EB4710816018
:103F200006F5106000EB4710006820F4001106F55C
:103F3000106000EB471001604FF67F3106F53060EE
:103F400000EB4710816006F5306000EB4710006819
:103F500020F4001106F5306000EB471001607F1C73
:103F60006068B842D5D840F61C00805940F0011175
:103F700040F61C008151206B70B1D6F8840840F0E7
:103F80000B01C6F8841840F64400805940F00B013C
:103F900040F6440081510FE040F61400805942F28F
:103FA0002B01084340F614018851081F805940F046
:103FB0000B014FF401608151D6F8000820F4FE6037
:103FC000C6F80008217C04F57172206807F0BAF980
:103FD0002068406900F4805021684861206807F03B
:103FE000A7FC00F40050B0F5005F17D1206806F080
:103FF000ADFE206807F04AFCE06000F043FB009053
:10400000227B2068009907F0E3FC204600F0CEF9FF
:104010002068406900F4005021684861206807F07A
:1040200087FC00F01000102846D12068806920F03D
:104030001000216888610298D0F8209009F00F00E4
:10404000C0EBC00104F5FE7000EB810BC9F34340E7
:1040500002281AD147F6F07009EA000030B3C9F31C
:104060000A12DBF80C10029807F067FCC9F30A117A
:10407000DBF80C000844CBF80C00C9F30A11DBF89C
:1040800018000844CBF8180010E0C9F34340062894
:104090000CD1082204F57171029807F04EFCC9F3A7
:1040A0000A11DBF818000844CBF818002068806972
:1040B00040F0100021688861206807F039FC00F0AA
:1040C0000800082808D1204600F08FF920684069D0
:1040D00000F0080021684861206807F029FC00F41E
:1040E0008010B0F5801F0AD100252946204600F037
:1040F00043F82068406900F4801021684861206816
:1041000007F016FC00F40010B0F5001F0AD10025DE
:104110002946204600F039F82068406900F4001074
:1041200021684861206807F003FC00F08040B0F18E
:10413000804F08D12046FFF7F0FB2068406900F06F
:10414000804021684861206807F0F2FB00F004001D
:1041500004280FD12068D0F8049009F00400042846
:1041600002D12046FFF700FC2068406840EA0900C1
:104170002168486000BF6FE570B504460D462946CA
:10418000D4F8040406F0D4F970BD70B504460D46A9
:104190002946D4F8040406F0CEF970BD70B58AB093
:1041A000044614B901200AB070BD266894F8BD0316
:1041B00028B9002084F8BC03204600F0A3F80320AF
:1041C00084F8BD03F06B00F4807008B90021216110
:1041D000206806F0C3FF282204F110016846FCF7AE
:1041E000CFF994E80F0006F0D5FD20B1022084F845
:1041F000BD030120D7E70021206807F0AFFB0025B1
:1042000031E00121C5EBC50204F13C0000EB820066
:104210004170C5EBC50104F13C0000F82150C5EB2D
:10422000C50100EB8100C5800021C5EBC50204F18A
:104230003C0000EB8200C170C5EBC50204F13C00FC
:1042400000EB82008160C5EBC50204F13C0000EB8D
:104250008200C160C5EBC50204F13C0000EB8200A6
:104260004161681CC5B26068A842CAD800252AE02E
:104270000021C5EBC50204F5FE7000EB8200417021
:10428000C5EBC50104F5FE7000F821500021C5EB17
:10429000C50200EB8200C170C5EBC50204F5FE70DB
:1042A00000EB82008160C5EBC50204F5FE7000EBF7
:1042B0008200C160C5EBC50204F5FE7000EB820010
:1042C0004161681CC5B26068A842D1D8282204F1B7
:1042D00010016846FCF754F994E80F0006F044FE1C
:1042E00020B1022084F8BD0301205CE7002084F89F
:1042F0003800012084F8BD03206806F025FE002068
:1043000051E7000010B586B00446142101A8FCF75F
:1043100071F92068B0F1A04F42D100BF0020009099
:104320002048006840F001001E4908600846006807
:1043300000F00100009000BF00BF4FF4C05001909A
:104340000220029000200390032004900A20059090
:1043500001A91548FEF736FD00BF1248001D006890
:1043600040F080000F49091D086000BF0020009048
:104370000C481430006840F480400A491431086049
:104380000846006800F48040009000BF00BF00BFF6
:10439000002205214320FFF741FA4320FFF72EFAC0
:1043A00006B010BD303802400000024070B504462F
:1043B0000125E06808B9002506E0E068022801D17F
:1043C000012501E0FDF782FD2946D4F8040406F03A
:1043D0002BF9D4F8040406F0E1F870BD10B50446DA
:1043E000D4F8040406F008F910BD10B50446D4F85A
:1043F000040406F008F910BD70B504460D4600BF70
:1044000094F8BC03012801D1022070BD012084F87A
:10441000BC0300BF84F838502946206807F0B9FA79
:1044200000BF002084F8BC0300BF00BFEDE710B55B
:10443000044604F57171D4F8040406F00CF910BDBB
:1044400070B50446256800BF94F8BC03012801D16B
:10445000022070BD012084F8BC0300BFA06A0128BF
:1044600006D1A069012803D0A86B40F48030A8636E
:10447000206806F059FD206807F0D2F900BF00203F
:1044800084F8BC0300BF00BFE3E7000010B504469A
:10449000D4F8040406F038F92068D0F8000E40F093
:1044A00001002168C1F8000E206A28B103480068A5
:1044B00040F006000149086010BD000010ED00E06A
:1044C00070B504460D460CB9012070BD584800680F
:1044D00000F00F00A84209D255490D700846006847
:1044E00000F00F00A84201D00120EEE7207800F094
:1044F000020002281DD1207800F00400042805D114
:104500004C48006840F4E0504A490860207800F0C8
:104510000800082805D14748006840F46040454934
:1045200008604448006820F0F000A1680843414951
:104530000860207800F00100A8B36068012807D166
:104540003C4808380068C0F34040B8B90120BCE7D7
:104550006068022802D06068032807D1354808380F
:104560000068C0F3406048B90120AEE73148083820
:104570000068C0F3400008B90120A6E72D48006894
:1045800020F00300616808432A490860FEF720FD17
:10459000064609E0FEF71CFD801B41F28831884287
:1045A00002D9032091E707E02248006800F00C00E0
:1045B0006168B0EB810FEDD11D48006800F00F007D
:1045C000A84209D91A490D700846006800F00F008A
:1045D000A84201D0012078E7207800F004000428E8
:1045E00007D11448006820F4E050E16808431149FD
:1045F0000860207800F00800082808D10D480068FD
:1046000020F46040216940EAC1000A49086000F0D6
:104610005FF808490968C1F30311074A515CC840B3
:10462000064908600F20FFF76FF800204DE70000F3
:10463000003C024008380240340001088800002095
:104640000F2202600D4A126802F0030242600B4A18
:10465000126802F0F0028260084A126802F4E05226
:10466000C260064A126802F46042D2080261044A3B
:10467000126802F00F020A6070470000083802401A
:10468000003C02400148006870470000880000209C
:1046900000B5FFF7F7FF04490968C1F38221034A17
:1046A000515CC84000BD00000838024044000108C9
:1046B00000B5FFF7E7FF04490968C1F34231034A37
:1046C000515CC84000BD00000838024044000108A9
:1046D0002DE9F047002400250026A1462548006862
:1046E00000F00C0020B1042805D008283AD105E0DC
:1046F000DFF8849039E0DFF8849036E01D48001F31
:10470000006800F03F041B48001F006800F48000B0
:1047100078B11A481749091F0968C1F38811A0FB2D
:1047200001700146224600233846FBF793FE0546FA
:104730000EE011480F49091F0968C1F38811A0FB59
:1047400001700146224600233846FBF783FE0546EA
:104750000848001F0068C0F30140401C4600B5FB3C
:10476000F6F902E0DFF8109000BF00BF4846BDE850
:10477000F0870000083802400024F400001BB70056
:10478000F8B504460CB90120F8BD207800F001000E
:10479000002874D0F948006800F00C0004280DD0FF
:1047A000F648006800F00C00082813D1F348001FF9
:1047B000006800F48000B0F5800F0BD1EF48083896
:1047C0000068C0F34040002859D06068002856D1E6
:1047D0000120D9E700BF6068B0F5803F08D1E74805
:1047E0000838006840F48030E449083908601EE069
:1047F0006068B0F5A02F0DD1E0480838006840F49B
:104800008020DE49083908600846006840F480309E
:1048100008600CE0D9480838006820F48030D74997
:10482000083908600846006820F48020086000BF4E
:10483000606890B1FEF7CCFB054606E0FEF7C8FBCA
:10484000401B642801D903209EE7CC480838006843
:10485000C0F340400028F1D011E0FEF7B9FB054657
:1048600006E0FEF7B5FB401B642801D903208BE767
:10487000C24808380068C0F340400028F1D12078D1
:1048800000F0020002285FD1BC48006800F00C0074
:1048900058B1BA48006800F00C0008281CD1B7488D
:1048A000001F006800F48000B0B9B4480838006800
:1048B000C0F3400020B1E068012801D0012063E787
:1048C000AE480838006820F0F800216940EAC100CD
:1048D000AA490839086037E0E06800B30120A84918
:1048E0000860FEF775FB054606E0FEF771FB401B0E
:1048F000022801D9032047E7A04808380068C0F320
:1049000040000028F1D09D480838006820F0F800E9
:10491000216940EAC10099490839086014E0002083
:1049200097490860FEF754FB054606E0FEF750FB8A
:10493000401B022801D9032026E790480838006868
:10494000C0F340000028F1D1207800F008000828CA
:104950002CD16069A8B101208A490860FEF738FBB4
:10496000054606E0FEF734FB401B022801D9032070
:104970000AE782486C300068C0F340000028F1D09C
:1049800014E000207F490860FEF722FB054606E0A0
:10499000FEF71EFB401B022801D90320F4E67748EE
:1049A0006C300068C0F340000028F1D1207800F09E
:1049B0000400042870D1002670483830006800F0E8
:1049C000805090B900BF002000906C4838300068DB
:1049D00040F080506949383108600846006800F0AE
:1049E0008050009000BF00BF01266748006800F4B7
:1049F0008070B0B96448006840F480706249086013
:104A0000FEF7E6FA054606E0FEF7E2FA401B02284A
:104A100001D90320B8E65C48006800F480700028E3
:104A2000F2D000BFA068012808D15448683000685F
:104A300040F001005149683108601DE0A068052878
:104A40000DD14E486830006840F004004B49683191
:104A500008600846006840F0010008600CE0474824
:104A60006830006820F00100444968310860084659
:104A7000006820F00400086000BFA068A8B1FEF73D
:104A8000A7FA054609E0FEF7A3FA401B41F2883178
:104A9000884202D9032077E626E03848683000686B
:104AA000C0F340000028EED013E0FEF791FA05466F
:104AB00008E0FEF78DFA401B41F28831884201D9A7
:104AC000032061E62D4868300068C0F340000028EC
:104AD000EFD1012E07D129483830006820F08050EE
:104AE00026493831086000BFA069B8B32348006880
:104AF00000F00C0008285ED0A069022846D10020F2
:104B00001F490866FEF764FA054606E0FEF760FAFC
:104B1000401B022801D9032036E6184808380068EF
:104B2000C0F340600028F1D1D4E907010843616A6D
:104B300040EA81110122A06AC2EB500041EA004123
:104B40002C20005D41EA00600C49091F086001202B
:104B50000B490866FEF73CFA054607E02DE0FEF734
:104B600037FA401B022801D903200DE60348083814
:104B70000068C0F340600028F1D01EE00838024011
:104B800000004742800E47420070004000200C4960
:104B90000866FEF71DFA054606E0FEF719FA401B07
:104BA000022801D90320EFE506480068C0F3406001
:104BB0000028F2D101E00120E6E50020E4E5000054
:104BC000000047420038024010B504460CB90120ED
:104BD00010BD606A00B900BF0021A16294F85100C5
:104BE00028B9002084F85000204600F033F8022055
:104BF00084F851002068006820F0400021680860B7
:104C0000D4E901010843E168084321690843616967
:104C10000843218B01F400710843E1690843216ACC
:104C20000843A16A0843216808600421A06901EAD9
:104C30001040616A0843216848602068C06920F418
:104C400000602168C86100206065012084F851007F
:104C50000020BDE710B586B00446142101A8FBF77B
:104C6000C9FC4B49206888427ED100BF00200090DB
:104C70004848006840F4805046490860084600688B
:104C800000F48050009000BF00BF00BF00200090E3
:104C900040481438006840F002003E49143908606A
:104CA0000846006800F00200009000BF00BF00BF8F
:104CB000002000900846006840F0010008600846A7
:104CC000006800F00100009000BF00BF18200190B4
:104CD00002200290012003900320049005200590FB
:104CE00001A92D48FEF76EF8802001900220029065
:104CF00001200390032004900520059001A9274876
:104D0000FEF760F82648274908604FF0C060486009
:104D1000002124488160C1604FF48061016100215D
:104D200041618161C1614FF4403101620021416202
:104D3000FDF75CFF08B1FDF7C9F800BF1948E06452
:104D4000846300BF16481830174908604FF0C060F0
:104D500048604021144881600021C1604FF48061A7
:104D600001610021416100E010E08161C1614FF407
:104D70000031016200214162FDF738FF08B1FDF703
:104D8000A5F800BF0848A064846300BF06B010BD4A
:104D9000003001404438024000040240000002405C
:104DA00040640240A4060020040700202DE9FF5FB4
:104DB0000446884691461D460E9E01200290002022
:104DC000019000BF94F85000012803D1022004B0E4
:104DD000BDE8F09F012084F8500000BFFEF7F8F80E
:104DE000074694F851B060680390AA46BBF1010FE2
:104DF0000BD00398B0F5827F04D1A06810B9BBF145
:104E0000040F02D002200190DBE0B8F1000F03D0C4
:104E1000B9F1000F00D015B901200190D1E094F84C
:104E20005100042802D0052084F85100002060655C
:104E3000C4F83890E587A587C4F83080E586A58654
:104E4000206460642068006800F04000402805D0BD
:104E50002068006840F0400021680860E068B0F514
:104E6000006F4AD1606810B1BAF1010F09D1206B0F
:104E700000882168C860206B801C2063E08E401E83
:104E8000E08633E02068806800F00200022810D13C
:104E9000E08E70B1029801280BD1206B0088216848
:104EA000C860206B801C2063E08E401EE0860020DE
:104EB00002902068806800F0010068B1E08F58B16E
:104EC0002068C068A16B0880A06B801CA063E08F85
:104ED000401EE08701200290FEF77AF8C01BB04226
:104EE00004D3701C10B1032001906AE0E08E00280A
:104EF000C8D1E08F0028C5D14AE0606810B1BAF18E
:104F0000010F09D1206B007821680873206B401CC9
:104F10002063E08E401EE08634E02068806800F068
:104F20000200022810D1E08E70B1029801280BD146
:104F3000206B007821680873206B401C2063E08E92
:104F4000401EE086002002902068806800F001008A
:104F500068B1E08F58B12068C068A16B0870A06B81
:104F6000401CA063E08F401EE08701200290FEF706
:104F70002FF8C01BB04201D3701C00B916B9032032
:104F800001901EE0E08E0028C7D1E08F0028C4D138
:104F90003A463146204604F0E5F820B10120019060
:104FA000202060650DE0A06850B900BF002000908F
:104FB0002068C068009020688068009000BF00BF33
:104FC00000BF012084F8510000BF002084F8500089
:104FD00000BF0198FBE67047704710B504460CB956
:104FE000012010BD94F83D0028B9002084F83C0051
:104FF000204600F00DF8022084F83D00211D2068B5
:1050000004F0ECF9012084F83D000020E9E70000FD
:1050100038B504460E492068884217D100BF0020E9
:1050200000900C48006840F400300A4908600846C7
:10503000006800F40030009000BF00BF00220F2184
:105040001920FEF7EBFB1920FEF7D8FB38BD000056
:10505000004401404438024001460868C06840F0FE
:1050600001000B68D8600868806800F00702062A13
:1050700005D00868006840F001000B681860002047
:105080007047704710B5044620680069C0F34000BF
:10509000D8B12068C068C0F34000B0B16FF0020022
:1050A00021680861012020772068806900F00300F2
:1050B00018B12046FFF7E5FF05E0204600F0DEF8D6
:1050C000204600F07BF90020207720680069C0F3BB
:1050D0008000D8B12068C068C0F38000B0B16FF024
:1050E000040021680861022020772068806900F4AC
:1050F000407018B12046FFF7C4FF05E0204600F0DD
:10510000BDF8204600F05AF9002020772068006999
:10511000C0F3C000D8B12068C068C0F3C000B0B10F
:105120006FF0080021680861042020772068C069BA
:1051300000F0030018B12046FFF7A3FF05E020466A
:1051400000F09CF8204600F039F900202077206814
:105150000069C0F30010D8B12068C068C0F3001027
:10516000B0B16FF010002168086108202077206836
:10517000C06900F4407018B12046FFF782FF05E0D7
:10518000204600F07BF8204600F018F90020207738
:105190002068006900F0010058B12068C06800F084
:1051A000010030B16FF0010021680861204600F075
:1051B00007F920680069C0F3C01058B12068C068C2
:1051C000C0F3C01030B16FF0800021680861204644
:1051D000FFF701FF20680069C0F3801058B1206814
:1051E000C068C0F3801030B16FF0400021680861E2
:1051F000204600F0F1F820680069C0F3401058B173
:105200002068C068C0F3401030B16FF02000216802
:1052100008612046FFF7E0FE10BD000010B586B023
:105220000446142101A8FBF7E5F9114920688842DA
:105230001CD100BF002000900E48006840F0200004
:105240000C4908600846006800F02000009000BF8C
:1052500000BF4020019002200290002003900490A3
:105260000320059001A90448FDF7ACFD06B010BD70
:10527000004401403038024000140240704770B5CD
:1052800004460D46164600BF94F83C00012801D1A3
:10529000022070BD012084F83C0000BF022084F889
:1052A0003D0036B1042E1BD0082E31D00C2E5ED11D
:1052B00045E02946206804F0FDF82068806940F048
:1052C0000800216888612068806920F00400216856
:1052D000886120688069296908432168886147E0FE
:1052E0002946206804F01EF92068806940F40060B7
:1052F000216888612068806920F480602168886165
:1053000020688069296940EA0120216888612FE0CE
:105310002946206804F044F92068C06940F008007C
:105320002168C8612068C06920F004002168C86154
:105330002068C069296908432168C86118E02946C6
:10534000206804F069F92068C06940F400602168B1
:10535000C8612068C06920F480602168C861206845
:10536000C069296940EA01202168C86100E000BFE6
:1053700000BF012084F83D0000BF002084F83C00FD
:1053800000BF00BF85E710B504460CB9012010BD71
:1053900094F83D0028B9002084F83C00204600F035
:1053A0000CF8022084F83D00211D206804F016F856
:1053B000012084F83D000020E9E7704770470000B5
:1053C00010B5044603492068884201D1FEF772F9FE
:1053D00010BD000000000140704710B504460CB934
:1053E000012010BDA06900B100E000BF94F83900B1
:1053F00028B9002084F83800204600F027F824203F
:1054000084F839002068C06820F400502168C86022
:10541000204604F02BF92068006920F490402168B0
:1054200008612068406920F02A00216848612068EE
:10543000C06840F400502168C8600020E06320206C
:1054400084F8390084F83A000020CAE710B586B025
:105450000446142101A8FBF7CDF82B4920688842A7
:1054600050D100BF002000902848006840F4802000
:10547000264908600846006800F48020009000BFBC
:1054800000BF00BF0020009020481038006840F0A6
:1054900004001E49103908600846006800F0040046
:1054A000009000BF00BF4FF44060019002200290C6
:1054B00001200390032004900720059001A91448BF
:1054C000FDF780FC1348144908604FF00060486005
:1054D000002111488160C1604FF4806101610021A9
:1054E00041618161C1614FF400310162002141627B
:1054F000FDF77CFB08B1FCF7E9FC00BF06486063E0
:10550000846300BF06B010BD004800404038024030
:105510000008024028600240E407002000BFFEE7C8
:10552000014608684069C0F38020B0B16FF4806024
:105530000A68506100200863202081F83D000020A7
:1055400081F83E00086C40F00400086400BF0020B1
:1055500081F83C0000BF012070470020FCE70000FC
:105560002DE9F84304460F4615469946DDE90886BD
:105570002068006840F48060216808602068006846
:1055800040F4807021680860434600224FF001110A
:105590002046009600F014F910B10120BDE8F88310
:1055A00007F0FE002168086133464246394920462B
:1055B00000F049F908B10120F0E700BF0020009099
:1055C00020684069009020688069009000BF00BF9B
:1055D00032464146204600F0D8F950B1206C0428EC
:1055E00005D12068006840F400702168086001203F
:1055F000D4E7B9F1010F03D1E8B22168086117E0DF
:10560000C5F307202168086132464146204600F074
:10561000BCF950B1206C042805D12068006840F422
:105620000070216808600120B8E7E8B221680861CD
:1056300032464146204600F0A8F950B1206C0428BB
:1056400005D12068006840F40070216808600120DE
:10565000A4E72068006840F4807021680860434631
:1056600000224FF001112046009600F0A9F808B181
:10567000012093E7F8B240F0010021680861334649
:1056800042460449204600F0DEF808B1012085E7D3
:10569000002083E7020001002DE9F8430446884614
:1056A00015469946DDE908672068006840F4807077
:1056B00021680860334600224FF001112046009710
:1056C00000F07EF810B10120BDE8F88308F0FE007C
:1056D000216808613B4632462149204600F0B3F874
:1056E00008B10120F0E700BF002000902068406969
:1056F000009020688069009000BF00BF3A463146A4
:10570000204600F042F950B1206C042805D12068F1
:10571000006840F40070216808600120D4E7B9F106
:10572000010F03D1E8B22168086117E0C5F3072033
:10573000216808613A463146204600F026F950B10A
:10574000206C042805D12068006840F400702168AE
:1057500008600120B8E7E8B2216808610020B3E7DB
:105760000200010070B504460D46164620E02046B2
:10577000FFF7D6FE08B1012070BD681CC0B1FDF76F
:1057800027FC801BA84200D895B900202063202068
:1057900084F83D00002084F83E00206C40F020009A
:1057A000206400BF002084F83C0000BF0120E3E734
:1057B00020684069C0F380000028D8D00020DBE7D3
:1057C0002DE9F04104460D4617461E46DDF81880C7
:1057D0001CE0701CD0B1FDF7FBFBA0EB0800B04251
:1057E00000D89EB900202063202084F83D000020CE
:1057F00084F83E00206C40F02000206400BF0020B0
:1058000084F83C0000BF0120BDE8F081C5F30740EB
:1058100001280AD120684069A9B20840A9B288428B
:1058200001D101200BE0002009E020688069A9B2C5
:105830000840A9B2884201D1012000E00020B8420E
:10584000C7D00020E0E72DE9F04104460D4616469A
:105850001F463DE020684069C0F38020E8B1206821
:10586000006840F40070216808606FF4806021686F
:10587000486100202063202084F83D00002084F847
:105880003E00206C40F00400206400BF002084F83B
:105890003C0000BF0120BDE8F081701CC0B1FDF7E5
:1058A00097FBC01BB04200D896B90020206320208F
:1058B00084F83D00002084F83E00206C40F0200079
:1058C000206400BF002084F83C0000BF0120E2E714
:1058D000C5F3074001280AD120684069A9B20840F1
:1058E000A9B2884201D101200BE0002009E0206824
:1058F0008069A9B20840A9B2884201D1012000E024
:1059000000200028A6D00020C5E770B504460D464B
:10591000164632E020684069C0F30010A0B16FF075
:1059200010002168486100202063202084F83D0099
:10593000002084F83E00206C206400BF002084F822
:105940003C0000BF012070BDFDF742FB801BA84258
:1059500000D895B900202063202084F83D00002065
:1059600084F83E00206C40F02000206400BF00203E
:1059700084F83C0000BF0120E5E720684069C0F3DF
:1059800080100028C6D00020DDE770B504460D4623
:10599000164620E02046FFF7C3FD08B1012070BD88
:1059A000681CC0B1FDF714FB801BA84200D895B954
:1059B00000202063202084F83D00002084F83E0071
:1059C000206C40F02000206400BF002084F83C00E0
:1059D00000BF0120E3E720684069C0F3C010002841
:1059E000D8D00020DBE730B50B46002100BF16E021
:1059F0000A24B4EB107F05D9302404EB107403F8AB
:105A0000114005E0412404EB10740A3C03F81140F6
:105A1000000100254C00641C1D554C1CE1B2914254
:105A2000E6DB30BD10B50E480E4908600320486023
:105A300000210C488160C1604FF4102101614FF4D6
:105A4000001141610021017641768176C1760177AE
:105A50004177FCF791FD08B1FCF738FA10BD000062
:105A600000640040A805002010B50E480E490860EB
:105A70000320486000210C488160C1604FF4102170
:105A800001614FF400114161002101764176817678
:105A9000C17601774177FCF76FFD08B1FCF716FA84
:105AA00010BD000000680040D005002008B500BF10
:105AB000002000901A48006840F4800018490860EF
:105AC0000846006800F48000009000BF00BF00BFDF
:105AD000002000900846006840F400100860084666
